{
  "contractName": "Loan",
  "abi": [
    {
      "constant": true,
      "inputs": [],
      "name": "amountToPrincipal",
      "outputs": [
        {
          "name": "",
          "type": "uint256"
        }
      ],
      "payable": false,
      "stateMutability": "view",
      "type": "function"
    },
    {
      "constant": true,
      "inputs": [],
      "name": "amountToInterest",
      "outputs": [
        {
          "name": "",
          "type": "uint256"
        }
      ],
      "payable": false,
      "stateMutability": "view",
      "type": "function"
    },
    {
      "constant": true,
      "inputs": [],
      "name": "testPeriodLength",
      "outputs": [
        {
          "name": "",
          "type": "uint256"
        }
      ],
      "payable": false,
      "stateMutability": "view",
      "type": "function"
    },
    {
      "constant": true,
      "inputs": [
        {
          "name": "",
          "type": "uint256"
        }
      ],
      "name": "contributors",
      "outputs": [
        {
          "name": "",
          "type": "address"
        }
      ],
      "payable": false,
      "stateMutability": "view",
      "type": "function"
    },
    {
      "constant": true,
      "inputs": [],
      "name": "currentPeriodIteration",
      "outputs": [
        {
          "name": "",
          "type": "uint256"
        }
      ],
      "payable": false,
      "stateMutability": "view",
      "type": "function"
    },
    {
      "constant": true,
      "inputs": [
        {
          "name": "",
          "type": "address"
        }
      ],
      "name": "contributions",
      "outputs": [
        {
          "name": "",
          "type": "uint256"
        }
      ],
      "payable": false,
      "stateMutability": "view",
      "type": "function"
    },
    {
      "constant": true,
      "inputs": [],
      "name": "payment",
      "outputs": [
        {
          "name": "",
          "type": "uint256"
        }
      ],
      "payable": false,
      "stateMutability": "view",
      "type": "function"
    },
    {
      "constant": true,
      "inputs": [],
      "name": "dateRequested",
      "outputs": [
        {
          "name": "",
          "type": "uint256"
        }
      ],
      "payable": false,
      "stateMutability": "view",
      "type": "function"
    },
    {
      "constant": true,
      "inputs": [],
      "name": "completeFlag",
      "outputs": [
        {
          "name": "",
          "type": "bool"
        }
      ],
      "payable": false,
      "stateMutability": "view",
      "type": "function"
    },
    {
      "constant": true,
      "inputs": [],
      "name": "requestedAmount",
      "outputs": [
        {
          "name": "",
          "type": "uint256"
        }
      ],
      "payable": false,
      "stateMutability": "view",
      "type": "function"
    },
    {
      "constant": true,
      "inputs": [],
      "name": "borrower",
      "outputs": [
        {
          "name": "",
          "type": "address"
        }
      ],
      "payable": false,
      "stateMutability": "view",
      "type": "function"
    },
    {
      "constant": true,
      "inputs": [],
      "name": "principalBalance",
      "outputs": [
        {
          "name": "",
          "type": "uint256"
        }
      ],
      "payable": false,
      "stateMutability": "view",
      "type": "function"
    },
    {
      "constant": true,
      "inputs": [],
      "name": "dateActivated",
      "outputs": [
        {
          "name": "",
          "type": "uint256"
        }
      ],
      "payable": false,
      "stateMutability": "view",
      "type": "function"
    },
    {
      "constant": true,
      "inputs": [],
      "name": "requestedRate",
      "outputs": [
        {
          "name": "",
          "type": "uint256"
        }
      ],
      "payable": false,
      "stateMutability": "view",
      "type": "function"
    },
    {
      "constant": true,
      "inputs": [],
      "name": "amountTilActivation",
      "outputs": [
        {
          "name": "",
          "type": "uint256"
        }
      ],
      "payable": false,
      "stateMutability": "view",
      "type": "function"
    },
    {
      "constant": true,
      "inputs": [],
      "name": "collectedPayments",
      "outputs": [
        {
          "name": "",
          "type": "uint256"
        }
      ],
      "payable": false,
      "stateMutability": "view",
      "type": "function"
    },
    {
      "constant": true,
      "inputs": [],
      "name": "paymentPeriodIterator",
      "outputs": [
        {
          "name": "",
          "type": "uint256"
        }
      ],
      "payable": false,
      "stateMutability": "view",
      "type": "function"
    },
    {
      "constant": true,
      "inputs": [],
      "name": "contributedAmount",
      "outputs": [
        {
          "name": "",
          "type": "uint256"
        }
      ],
      "payable": false,
      "stateMutability": "view",
      "type": "function"
    },
    {
      "constant": true,
      "inputs": [],
      "name": "contributorCount",
      "outputs": [
        {
          "name": "",
          "type": "uint256"
        }
      ],
      "payable": false,
      "stateMutability": "view",
      "type": "function"
    },
    {
      "constant": true,
      "inputs": [],
      "name": "lengthInPeriods",
      "outputs": [
        {
          "name": "",
          "type": "uint256"
        }
      ],
      "payable": false,
      "stateMutability": "view",
      "type": "function"
    },
    {
      "inputs": [
        {
          "name": "_requestedRate",
          "type": "uint256"
        },
        {
          "name": "_requestedAmount",
          "type": "uint256"
        },
        {
          "name": "_lengthInPeriods",
          "type": "uint256"
        },
        {
          "name": "_testPeriodLength",
          "type": "uint256"
        }
      ],
      "payable": true,
      "stateMutability": "payable",
      "type": "constructor"
    },
    {
      "constant": false,
      "inputs": [],
      "name": "contribute",
      "outputs": [],
      "payable": true,
      "stateMutability": "payable",
      "type": "function"
    },
    {
      "constant": false,
      "inputs": [],
      "name": "makePayment",
      "outputs": [],
      "payable": true,
      "stateMutability": "payable",
      "type": "function"
    },
    {
      "constant": false,
      "inputs": [],
      "name": "distributeCollections",
      "outputs": [],
      "payable": false,
      "stateMutability": "nonpayable",
      "type": "function"
    }
  ],
  "bytecode": "0x6080604052604051608080610d178339810180604052810190808051906020019092919080519060200190929190805190602001909291908051906020019092919050505042600181905550836003819055508260048190555081600a8190555060045460118190555080601281905550336000806101000a81548173ffffffffffffffffffffffffffffffffffffffff021916908373ffffffffffffffffffffffffffffffffffffffff1602179055506100c76100d1640100000000026401000000009004565b50505050506101bd565b60008060006305f5e100600354610100600354600a546004546014610155640100000000026401000000009004565b81151561010957fe5b040291506305f5e100610136600354600a546305f5e1006014610155640100000000026401000000009004565b039050808281151561014457fe5b04600b81905550600b549250505090565b60008060008060008093506001925060019150600090505b858110156101ae5780890a8284890281151561018557fe5b0481151561018f57fe5b048401935080880383029250600181018202915080600101905061016d565b83945050505050949350505050565b610b4b806101cc6000396000f300608060405260043610610132576000357c0100000000000000000000000000000000000000000000000000000000900463ffffffff168062850aad14610137578063131369281461016257806326da99851461018d5780633cb5d100146101b85780633fd79d1b1461022557806342e94c901461025057806342f6487a146102a7578063488771ab146102d257806348dc1650146102e9578063593a746b1461031457806378860268146103435780637df1f1b91461036e578063a83e53ac146103c5578063ae146e01146103f0578063c11de0731461041b578063c7efefa214610446578063d3dcbc5b14610471578063d7bb99ba1461049c578063d80b68a3146104a6578063d8d79700146104d1578063db1a6eaa146104db578063ecfd892814610506578063f9bfb78e14610531575b600080fd5b34801561014357600080fd5b5061014c61055c565b6040518082815260200191505060405180910390f35b34801561016e57600080fd5b50610177610562565b6040518082815260200191505060405180910390f35b34801561019957600080fd5b506101a2610568565b6040518082815260200191505060405180910390f35b3480156101c457600080fd5b506101e36004803603810190808035906020019092919050505061056e565b604051808273ffffffffffffffffffffffffffffffffffffffff1673ffffffffffffffffffffffffffffffffffffffff16815260200191505060405180910390f35b34801561023157600080fd5b5061023a6105ac565b6040518082815260200191505060405180910390f35b34801561025c57600080fd5b50610291600480360381019080803573ffffffffffffffffffffffffffffffffffffffff1690602001909291905050506105b2565b6040518082815260200191505060405180910390f35b3480156102b357600080fd5b506102bc6105ca565b6040518082815260200191505060405180910390f35b3480156102de57600080fd5b506102e76105d0565b005b3480156102f557600080fd5b506102fe61071f565b6040518082815260200191505060405180910390f35b34801561032057600080fd5b50610329610725565b604051808215151515815260200191505060405180910390f35b34801561034f57600080fd5b50610358610738565b6040518082815260200191505060405180910390f35b34801561037a57600080fd5b5061038361073e565b604051808273ffffffffffffffffffffffffffffffffffffffff1673ffffffffffffffffffffffffffffffffffffffff16815260200191505060405180910390f35b3480156103d157600080fd5b506103da610763565b6040518082815260200191505060405180910390f35b3480156103fc57600080fd5b50610405610769565b6040518082815260200191505060405180910390f35b34801561042757600080fd5b5061043061076f565b6040518082815260200191505060405180910390f35b34801561045257600080fd5b5061045b610775565b6040518082815260200191505060405180910390f35b34801561047d57600080fd5b5061048661077b565b6040518082815260200191505060405180910390f35b6104a4610781565b005b3480156104b257600080fd5b506104bb61091f565b6040518082815260200191505060405180910390f35b6104d9610925565b005b3480156104e757600080fd5b506104f0610a60565b6040518082815260200191505060405180910390f35b34801561051257600080fd5b5061051b610a66565b6040518082815260200191505060405180910390f35b34801561053d57600080fd5b50610546610a6c565b6040518082815260200191505060405180910390f35b600e5481565b600d5481565b60125481565b60068181548110151561057d57fe5b906000526020600020016000915054906101000a900473ffffffffffffffffffffffffffffffffffffffff1681565b60105481565b60076020528060005260406000206000915090505481565b600b5481565b6000806000803073ffffffffffffffffffffffffffffffffffffffff16319350600092505b600954831015610719576007600060068581548110151561061257fe5b9060005260206000200160009054906101000a900473ffffffffffffffffffffffffffffffffffffffff1673ffffffffffffffffffffffffffffffffffffffff1673ffffffffffffffffffffffffffffffffffffffff16815260200190815260200160002054915060085482850281151561068957fe5b04905060068381548110151561069b57fe5b9060005260206000200160009054906101000a900473ffffffffffffffffffffffffffffffffffffffff1673ffffffffffffffffffffffffffffffffffffffff166108fc829081150290604051600060405180830381858888f1935050505015801561070b573d6000803e3d6000fd5b5082806001019350506105f5565b50505050565b60015481565b601360009054906101000a900460ff1681565b60045481565b6000809054906101000a900473ffffffffffffffffffffffffffffffffffffffff1681565b60055481565b60025481565b60035481565b60115481565b600c5481565b600060063390806001815401808255809150509060018203906000526020600020016000909192909190916101000a81548173ffffffffffffffffffffffffffffffffffffffff021916908373ffffffffffffffffffffffffffffffffffffffff16021790555050600960008154809291906001019190505550601154341015156108bc576011543403905080346008540103600881905550803403600760003373ffffffffffffffffffffffffffffffffffffffff1673ffffffffffffffffffffffffffffffffffffffff1681526020019081526020016000208190555060006011819055503373ffffffffffffffffffffffffffffffffffffffff166108fc829081150290604051600060405180830381858888f193505050501580156108ae573d6000803e3d6000fd5b506108b7610a72565b61091c565b34600760003373ffffffffffffffffffffffffffffffffffffffff1673ffffffffffffffffffffffffffffffffffffffff168152602001908152602001600020819055503460086000828254019250508190555034601154036011819055505b50565b600f5481565b60008060006001601254600254420381151561093d57fe5b0401601081905550601054600f541115156109615761095a610b03565b600d819055505b600d5460055401925082341115156109ce57600d54341180156109875750601054600f54105b1561099f57600f600081548092919060010191905055505b600d543403600e8190555034600c60008282540192505081905550600d54346005540301600581905550610a5b565b6001601360006101000a81548160ff0219169083151502179055508234039150813403905080600c6000828254019250508190555060006005819055503373ffffffffffffffffffffffffffffffffffffffff166108fc839081150290604051600060405180830381858888f19350505050158015610a51573d6000803e3d6000fd5b50610a5a6105d0565b5b505050565b60085481565b60095481565b600a5481565b426002819055506004546005819055506000809054906101000a900473ffffffffffffffffffffffffffffffffffffffff1673ffffffffffffffffffffffffffffffffffffffff166108fc3073ffffffffffffffffffffffffffffffffffffffff16319081150290604051600060405180830381858888f19350505050158015610b00573d6000803e3d6000fd5b50565b600080600354600554811515610b1557fe5b04905080915050905600a165627a7a72305820842c2f640cd2692559f66c3ecf399e84074793bf5d00f0cc7eabee030473749d0029",
  "source": "pragma solidity ^0.4.0;\n\ncontract Loan {\n    address public borrower;\n    uint public dateRequested;\n    uint public dateActivated;\n    uint public requestedRate;\n    uint public requestedAmount;\n    uint public principalBalance;\n    address[] public contributors;\n    mapping(address => uint) public contributions;\n    uint public contributedAmount;\n    uint public contributorCount;\n    uint public lengthInPeriods;\n    uint public payment;\n    uint public collectedPayments;\n    uint public amountToInterest;\n    uint public amountToPrincipal;\n    uint public paymentPeriodIterator;\n    uint public currentPeriodIteration;\n    uint public amountTilActivation;\n    uint public testPeriodLength;\n    bool public completeFlag;\n\n\n    constructor(uint _requestedRate, uint _requestedAmount, uint _lengthInPeriods, uint _testPeriodLength) public payable {\n        dateRequested = now;\n        requestedRate = _requestedRate;\n        requestedAmount = _requestedAmount;\n        lengthInPeriods = _lengthInPeriods;\n        amountTilActivation = requestedAmount;\n        testPeriodLength = _testPeriodLength;\n        borrower = msg.sender;\n        calculatePayment();\n    }\n\n    function contribute() public payable {\n        contributors.push(msg.sender);\n        contributorCount++;\n        if (msg.value >= amountTilActivation) {\n            uint amountToRefund = msg.value - amountTilActivation;\n            contributedAmount = contributedAmount + msg.value - amountToRefund;\n            contributions[msg.sender] = msg.value - amountToRefund;\n            amountTilActivation = 0;\n            msg.sender.transfer(amountToRefund);\n            activate();\n        } else {\n            contributions[msg.sender] = msg.value;\n            contributedAmount += msg.value;\n            amountTilActivation = amountTilActivation - msg.value;\n        }\n    }\n\n    function activate() private {\n        dateActivated = now;\n        principalBalance = requestedAmount;\n        address(borrower).transfer(address(this).balance);\n    }\n\n    function makePayment() public payable {\n        currentPeriodIteration = (now - dateActivated) / testPeriodLength + 1;\n\n        if (paymentPeriodIterator <= currentPeriodIteration) {\n            amountToInterest = calculateInterestPayment();\n        }\n        // Need to clean up vars in here to make less confusing\n        uint payoffValue = principalBalance + amountToInterest;\n        if (msg.value <= payoffValue) {\n            if (msg.value > amountToInterest && paymentPeriodIterator < currentPeriodIteration ) {\n                paymentPeriodIterator++;\n            }\n            amountToPrincipal = msg.value - amountToInterest;\n            collectedPayments += msg.value;\n            principalBalance = principalBalance - msg.value + amountToInterest;\n        } else {\n            completeFlag = true;\n            uint amountToRefund = msg.value - payoffValue;\n            uint amountToPayment = msg.value - amountToRefund;\n            collectedPayments += amountToPayment;\n            principalBalance = 0;\n            msg.sender.transfer(amountToRefund);\n            distributeCollections();\n        }\n    }\n\n    function distributeCollections() public {\n        uint totalContributions = address(this).balance;\n        for (uint i = 0; i < contributorCount; i++) {\n            uint contributed = contributions[contributors[i]];\n            uint distributionAmount = totalContributions * contributed / contributedAmount;\n            address(contributors[i]).transfer(distributionAmount);\n        }\n    }\n\n\n    // TODO: PMT()\n    function calculatePayment() private returns (uint) {\n        uint numerator = futureValue(requestedRate, lengthInPeriods, requestedAmount, 20) / requestedRate * 100000000;\n        uint denominator = futureValue(requestedRate, lengthInPeriods, 100000000, 20) - 100000000;\n        payment = numerator / denominator;\n        return payment;\n    }\n\n    // TODO: IPMT()\n    // Not right yet\n    function calculateInterestPayment() private returns (uint) {\n        uint interestPayment = principalBalance / requestedRate;\n        return interestPayment;\n    }\n\n    // TODO: FV()\n    function futureValue( uint rateReciprocal, uint n, uint presentValue, uint precision) private returns (uint) {\n      uint s = 0;\n      uint N = 1;\n      uint B = 1;\n      // Might need to adjust how we set % to fraction later by changing q\n      for (uint i = 0; i < precision; ++i){\n        s += presentValue * N / B / (rateReciprocal**i);\n        N  = N * (n-i);\n        B  = B * (i+1);\n      }\n      return s;\n    }\n}",
  "sourcePath": "/Users/danny/solidity/liquid-loan/contracts/BasicLoan.sol",
  "compiler": {
    "name": "solc",
    "version": "0.4.24+commit.e67f0147.Emscripten.clang"
  },
  "schemaVersion": "2.0.0",
  "updatedAt": "2018-06-22T20:04:52.382Z"
}